:400000000080002011000000E5030000E503000080B500AF024A034B1B68136000F014FABC760040FA46004010B5054C237833B9044B13B10448AFF300800123237010BD39
:400040006081FF1F0000000088300000084B10B51BB108490848AFF300800848036803B910BD074B002BFBD0BDE81040184700BF000000006481FF1F88300000C880FF1F62
:400080000000000080B598B000AF62B60121002000F06EFA00BF00F00FFC0346002BFAD000F06AFDB7F85E3001339BB2A7F85E30B7F95E203B1D0449184602F0C1FB3B1DF1
:4000C000184600F0C3FDEDE78C30000080B582B000AF786039603A680021786802F0A7FB00BF0837BD4680BD80B584B000AFF860B9607A607A68B968F86802F08DFB00BF67
:400100001037BD4680BD00BF80B584B000AFF860B9607A607A68B968F86802F07DFB00BF1037BD4680BD00BF80B483B000AF0346FB71FEE780B487B000AF786039600023E6
:400140003B6100237B6127E07B699B007A6813441B68BB60BB68FB73BB6823F0FF03BB6014E03B695B003A6813441B781A46BB68134419463B695B003A6813445B780B70A5
:400180003B6901333B61FB7B013BFB73FB7B002BE7D17B6901337B617B690B2BD4D900BF1C37BD4680BC704780B582B000AF04222B492C48FFF7A8FF2B4B06221A702B4B30
:4001C00052221A702A4B2B4A1278D2B21A702A4B40F618021A80294B41F251221A800023FB7019237B6014E0FB785B00DAB2244B1B78DBB203F00103DBB21343DBB203F090
:400200000303FB704FF4F07002F072FA7B68013B7B607B68002B02D0FB78032BE4D17B68002B02D10320FFF77FFF164B4FF480721A80144B07221A70134B00221A70134BFA
:4002400048221A700F4B00221A70114B00221A70104B02221A7000BF0837BD4680BD00BF9C300000004100400043004000420040A14600400F01004922420040204200405E
:4002800025420040044000400640004008400040094000400140004080B483B000AF0B4B1B78FB710A4AFB7903F00703DBB21370084AFB791B09DBB21370074B44221A707F
:4002C00000BF0C37BD4680BC704700BFCF0100496E5800406F5800407658004080B582B000AF72B62F4B60221A70FFF75DFF2D4B00221A702C4A2C4B1B78DBB243F0040392
:40030000DBB213700023FB7113E0FA7913465B0013445B00254A13443B603B681A683B689B889BB219461046FFF7D0FEFB790133FB71FB79062BE8D91D491E48FFF7FAFE0C
:400340001D4A1D4B1B78DBB243F00203DBB213701A4A1A4B1B78DBB243F00203DBB21370082217491748FFF7CFFE0A2216491748FFF7CAFE082216491648FFF7C5FE164AC1
:40038000154B1B78DBB243F00803DBB21370FFF783FF0E2211491248FFF7A6FE00BF0837BD4680BD00480040E8460040A0300000FC300000CC300000035001401350014015
:4003C00038310000C251004040310000F05100404C3100001251004022430040A0430040B043004080B500AF02F0EAF903461B680C2B00D1FEE7FEE780B584B000AF7860ED
:400400000F4B1A687B6813441A460E4BD31A802B09DC0B4B1B68FB60094B1A687B681344074A136007E002F0CBF902460C2313604FF0FF33FB60FB6818461037BD4680BDCD
:40044000CC80FF1F6882FF1F80B586B000AF224B7B61224B3B61204B7B6135E03B691B68FB603B695B68BB603B699B683B6000237B600CE0FB681A68BB681A60BB68043336
:40048000BB60FB680433FB607B6804337B607A683B689A42EED13B69DB683B6000237B6008E0BB6800221A60BB680433BB607B6804337B607A683B689A42F2D13B6910337B
:4004C0003B617B69013B7B617B69002BC6D102F07DF9FFF7D7FDFEE7010000002433000080B582B000AF184B184A1A60184A184B1B6843F40073136000237B600FE07B68C5
:40050000032B04D8134A7B6852F8233000E0124B12497A6841F822307B6801337B607B682F2BECD90E4B1B78DAB20E4B1A700E4B0A4A1A60FFF7D2FE0C4B00221A6000BFE1
:400540000837BD4680BD00BF0CED00E00004FA0514ED00E000000000E50300000080FF1FBC760040C480FF1F08ED00E0C080FF1F80B582B000AF03460A46FB711346BB7153
:40058000094B1B78002B04D100F010F8064B01221A70BA79FB791146184600F0D9F800BF0837BD4680BD00BF7C81FF1F80B582B000AF02F0BCF80346FB71544A534B1B78E9
:4005C000DBB243F00103DBB21370514A504B1B78DBB243F00103DBB213704E4B01221A704D4B02221A704D4A4C4B1B78DBB203F07F03DBB21370002001F0B6FF484A484B40
:400600001B78DBB223F00603DBB21370454A454B1B78DBB223F02003DBB21370404A404B1B78DBB243F00103DBB21370012001F09BFF282001F098FF3B4A3B4B1B78DBB2C6
:4006400003F07F03DBB21370374A374B1B78DBB223F04003DBB21370314A314B1B78DBB243F00203DBB21370022001F07DFF2C4A2B4B1B78DBB243F00403DBB213702B4BB2
:4006800000221A702A4B00221A70FB79184602F052F80721172001F0A3FF2649172001F077FF0721182001F09BFF2349182001F06FFF0721152001F093FF2049152001F003
:4006C00067FF0721002001F08BFF1D49002001F05FFF0721012001F083FF1A49012001F057FF0721022001F07BFF1749022001F04FFF07210C2001F073FF14490C2001F0CE
:4007000047FF00BF0837BD4680BD00BFA5430040B54300409D60004009600040106000409443004012600040F85100408460004085600040D1140000B90D0000C514000061
:40074000DD1300002514000071140000DD14000080B582B000AF03460A46FB711346BB712E4AFB7913702E4B00221A702D4B00221A702D4B00221A702C4B00221A702C4BC4
:4007800000221A702B4B00221A702B4B00221A702A4B4FF400021A60284B4FF080721A60264B4FF400121A60244B01221A60234B02221A60214B04221A60BB79002B02D062
:4007C000012B09D011E01E4A1D4B1B78DBB223F00103DBB2137011E0194A194B1B78DBB243F00103DBB2137008E0154A144B1B78DBB243F00103DBB2137000BF114B032280
:400800001A70114B80221A70012001F071FF0F4B04221A7000BF0837BD4680BDA581FF1FA881FF1FC481FF1FC781FF1FBC81FF1FC681FF1FC981FF1FA481FF1F00E100E05C
:400840000960004028600040086000401260004080B400AF0F4B00221A700F4B00221A700E4B00221A700E4B00221A700D4B00221A700D4B00221A700C4B00221A700C4B52
:4008800003221A700B4B80221A7000BFBD4680BC704700BFA881FF1FC481FF1FC781FF1FBC81FF1FC681FF1FC981FF1FA481FF1F286000400860004080B400AF034B1B78E4
:4008C000DBB21846BD4680BC704700BFC781FF1FB0B485B000AF03463960FB711346BB80FB79002B6DD0FB79082B6AD8B988FA79364813465B0013449B00034406331B8808
:400900009BB2C3F5007399420CD9FA792F4913465B0013449B000B4406331B889BB2C3F50073BB802A4CF979BB881B0A9BB2D8B2FA79264D13465B0013449B002B440333B8
:400940001B78DBB20343DAB20B0123441A70204AFB79B988C9B21B01134401330A461A703B68002B13D00023FB810CE01948FB79FA8939680A4412781B01034408331A7038
:40098000FB890133FB81FA89BB889A42EED3FA790E4913465B0013449B000B44013300221A700B48F979FA79084C13465B0013449B00234405331B78DAB20B010344023389
:4009C0001A7000BF1437BD46B0BC7047CC81FF1FFC5F00407060004090B482B000AF0346FB71FB79002B1CD0FB79082B19D8FA790E4913465B0013449B000B440133002215
:400A00001A700B48F979FA79084C13465B0013449B00234405331B78DAB20B01034402331A7000BF0837BD4690BC7047CC81FF1FFC5F004080B582B000AF0023FB71314BFF
:400A40001B79DBB2184600F067F80346BB712D4B1B78DBB25BB2002B15DA2A4B5B78DBB2212B00D048E0284B07221A80BA791346DB009B1A254A1344234A536000F016FB22
:400A80000346FB7138E01F4B5B78DBB2202B02D0222B1AD030E01C4B07221A80BA791346DB009B1A194A1344174A5360BB79BA7917498A5CD2B242F00102D1B2144AD154BB
:400AC00000F072FB0346FB7116E0BB790D4A9278D2B291B20F4A22F81310BB79BA790C498A5CD2B242F00202D1B2094AD15400F0F9FB0346FB7100BFFB7918460837BD4639
:400B000080BD00BF00600040B081FF1FD080FF1F8C81FF1FA081FF1F80B485B000AF0346FB710023FB73FF23BB7317E0FB7B104AD35C7B737A7B0F4913465B0013449B006D
:400B40000B440A331B78DBB2FA799A4203D1FB7BBB730223FB73FB7B0133FB73FB7B012BE4D9BB7B18461437BD4680BC704700BF9481FF1FCC81FF1F80B582B000AF00238D
:400B8000BB71224B00221A70214B00221A70204B00225A700023FB7110E0FB791D4AD35C7B717B79002B06D07B79082B03D87B791846FFF711FFFB790133FB71FB79012B09
:400BC000EBD9154B1B78DBB2002B18D0114B1B78DBB2002B13D0114B1B78DBB2002B0ED00D4B1B78DBB2082B09D80A4B1B78DBB2082B04D8094B1B78DBB2082B01D90123DA
:400C0000BB71BB7918460837BD4680BD7D81FF1F8C81FF1F9881FF1F9081FF1F9481FF1F80B485B000AF78600023FB8102E0FB890133FB81FB897A6813441B78002BF6D1B0
:400C4000FB8918461437BD4680BC704780B584B000AF78600023BB81304B1B781A46304B9B5CFB727868FFF7DBFF0346FB81FA7A2C4913465B0013449B000B4408331B8884
:400C80009BB2FA899A420AD9FA7A264913465B0013449B000B4408331B889BB200E0FB893B81BB897A68D1183A89FB7A1846FFF70FFEFA893B89D31AFB81FB89002B0CD19E
:400CC000FA7A184913465B0013449B000B4408331B889BB23A899A4219D1BA893B891344BB8100BFFA7A0F4913465B0013449B000B4401331B78DBB2002BF3D0FB89002B6B
:400D000005D1FB7A002200211846FFF7E1FDFB89002BACD100BF1037BD4680BD7D81FF1F9081FF1FCC81FF1F80B485B000AF78600B46FB701346BB707B68DB7803F003036C
:400D4000FB737B689B785BB2002B1ADAFB7B032B0AD0BB7803F001031449FA78CA54BB7843F00103BB701BE0BB789B08DBB203F001030F49FA78CA54BB7843F00403BB70E4
:400D80000EE0FB7B032B0BD0BB785B08DBB203F001030849FA78CA54BB7843F00203BB70BB7818461437BD4680BC70479081FF1F9481FF1F9881FF1F80B582B000AF374B32
:400DC0001B78BB71BB7903F01003002B62D00123FB7197F90630002B12DABB7903F00F03012B02D00023FB711CE000F061F82C4B1B78DBB25BB2002B14DA0023FB7111E0E8
:400E0000BB7903F04003002B02D000F095F809E0BB7903F02003002B02D000F0B3F801E00023FB71FB79002B34D01C4B1B78BB7197F90630002B2DDB1A4B1B78DAB21A4BE8
:400E40001B78DBB21343BB71184ABB791370174B1B78DBB2BA799A421CD1114B1B78FB710E4B1B78DBB223F07F03BB71BB79002B0AD10A4B0A4A1278D2B21A70074B1B7844
:400E8000DBB203F00F03FB71054B1B78DBB2FA799A42E2D100BF0837BD4680BD28600040C581FF1F3A82FF1FC881FF1F2960004080B582B000AF1D4B1B78FB711B4AFB79F8
:400EC00013701A4B1B78FB7197F90730002B03DA174AFB79137025E0022000F045FA154B1B78DBB203F06003202B08D0402B0BD0002B0ED100F0F8FA0346FB710CE001F0D1
:400F000021FC0346FB7107E001F0F8FA0346FB7102E00023FB7100BFFB79002B02D1044B03221A7000BF0837BD4680BD28600040C581FF1F0060004080B500AF104B1B78E4
:400F4000DBB2062B19D801A252F823F07B0F00007B0F0000690F00007B0F00006F0F00007B0F0000750F000000F0F8F806E000F0A7F903E000F0D2F900E000BF00BF80BD91
:400F8000A881FF1F80B500AF124B1B78DBB2062B1DD801A252F823F0CF0F0000CF0F0000B50F0000CF0F0000BB0F0000CF0F0000C10F000000F0D8F80AE000F027F907E0EC
:400FC000032000F0D1F9044B03221A7000E000BF00BF80BDA881FF1FC581FF1F80B483B000AF0023FB71294B1B78DBB29AB2284B1B889BB213449AB2254B1A8015E02549D8
:40100000FB79254A52681278D2B2CA54224B5B680133214A5360FB790133FB711E4B1B889BB2013B9AB21C4B1A801B4B1B889BB2002B02D0FB79072BE1D9144B1B78DBB23D
:40104000082B02D0FB79002B0FD0144B1B78DBB283F07F03DB43DAB2104B1A70104B0F221A70104B02221A7005E00D4B02221A700C4B02221A700C4AFB791370034AFB79CD
:40108000137000BF0C37BD4680BC7047A481FF1FA681FF1F00600040B081FF1F3A82FF1FC581FF1FA881FF1FC881FF1F80B582B000AF164B1B889BB2002B02D100F02EF8D7
:4010C0001EE0134B02221A70124B00221A7000F06BF9114BDB79DBB29BB21B029AB20E4B9B79DBB29BB21343FB80084B1B889BB2FA889A4202D2054AFB881380FFF76EFF41
:40110000012318460837BD4680BD00BFB081FF1FA881FF1F3A82FF1F0060004080B400AF094B02221A70094B80221A70084B0F221A70084B00221A70074B00221A7001234B
:401140001846BD4680BC7047A881FF1F3A82FF1FC581FF1FA481FF1FC881FF1F80B500AFFFF73CFF00BF80BD80B500AF0A4B1B78DBB29AB2094B1B889BB213449AB2074BFD
:401180001A80074B00221A70012000F0EDF8054B03221A7000BF80BDA481FF1FA681FF1FA881FF1FC581FF1F80B582B000AF124B04221A70114B80221A7000F0F5F8104B90
:4011C000DB79DBB29BB21B029AB20D4B9B79DBB29BB21343FB800B4B1B889BB2FA889A4202D2084AFB881380074B0B221A70012318460837BD4680BDA881FF1F3A82FF1F36
:4012000000600040B081FF1FC581FF1F80B483B000AF0023BB71234B1B78DBB203F00F03DBB2023BFB71FB799AB21F4B1B889BB213449AB21C4B1A8018E01C4B5B681C49E8
:40124000BA798A5CD2B21A70184B5B680133174A5360BB790133BB71FB79013BFB71134B1B889BB2013B9AB2104B1A800F4B1B889BB2002B02D0FB79002BDED10D4AFB79FE
:4012800013700D4B1B78DBB283F07F03DB43DAB2094B1A70094B0B221A7000BF0C37BD4680BC704729600040A681FF1FB081FF1F00600040C881FF1F3A82FF1FC581FF1F11
:4012C00080B500AF054B00221A70012000F04CF8034B03221A7000BF80BD00BFA881FF1FC581FF1F80B400AF084B06221A70084B06221A70074B80221A70074B00221A70ED
:4013000001231846BD4680BC704700BFA881FF1FC581FF1F3A82FF1FC881FF1F80B500AF0D4B1B78DBB2002B0AD00C4A0A4B1B78DBB263F07F03DBB21370074B00221A707B
:40134000074B00221A70012000F00EF8054B03221A7000BF80BD00BFC681FF1F08600040A881FF1FC581FF1F80B483B000AF0346FB710B4B9B68002B0CD0094B9B68FA79F1
:401380001A70074B9B68074A128892B25A80044B00229A6000BF0C37BD4680BC704700BFB081FF1FA681FF1F80B400AF094B00221A80094B9B68002B07D0074B9B680022CC
:4013C0001A70054B9B6800225A8000BFBD4680BC704700BFA681FF1FB081FF1F80B400AF0D4B01221A700D4B9B7C0D4B1B7BDBB203F00303012B08D0094BDB7BDBB283F093
:401400007F03DB43DAB2064BDA73054B01225A7300BFBD4680BC70470B600040FC5F0040CC81FF1F80B400AF0E4B02221A700E4B93F822300D4B1B7EDBB203F00303012B79
:4014400008D00A4BDB7EDBB283F07F03DB43DAB2064BDA76054B01225A7600BFBD4680BC704700BF0B600040FC5F0040CC81FF1F80B400AF104B04221A70104B93F832307B
:401480000F4B93F82430DBB203F00303012B0AD00B4B93F82730DBB283F07F03DB43DAB2074B83F82720064B012283F8252000BFBD4680BC704700BF0B600040FC5F004001
:4014C000CC81FF1F80B400AF00BFBD4680BC704780B500AFFFF7BCF900BF80BD80B500AF01F026F800BF80BD80B586B000AF0023FB75B04B1B78FB7100233B61AE4B0022EE
:401500001A8097F90730002B80F2FD80A94B5B78DBB20A2B00F2168201A252F823F000BF5D16000045190000451900004519000045190000451900004D1500004519000055
:40154000D116000045190000E7160000994BDB78DBB2012B0ED100F049FEB860BB685B68954A5360944B12221A80FFF79FFD0346FB75E9E18F4BDB78DBB2022B25D18D4B1C
:401580009B78DBB2184600F009FEB860BB68002B00F0DA81BB685B68874A5360864B5B6803331B78DBB29BB21B029AB2824B5B6802331B78DBB29BB213439AB27E4B1A8044
:4015C000FFF774FD0346FB75BEE17A4BDB78DBB2032B3ED10023FB73784B3B6109E03B691B78BB71BB793A6913443B61FB7B0133FB73704B9B78DBB2FA7B9A4204D23B6906
:401600001B78DBB2002BEAD16A4B9B78DBB2002B0BD0684B9B78DAB2694B1B7C9A4204D1684800F0ABF9674B3B613B691B78DBB2002B00F089813B691B78DBB29AB25E4BC7
:401640001A805D4A3B695360FFF730FD0346FB757AE101F077F80346FB7575E1FB7903F00303002B20D0022B00D030E0524B02221A80504B1B79DBB203F07F025249134618
:401680005B0013449B000B4402331B78DAB24F4B1A704E4B00225A70474B4C4A5A60FFF705FD0346FB7512E0434B02221A80484B1B78DAB2454B1A70444B00225A703E4BF0
:4016C000424A5A60FFF7F2FC0346FB7500BF42E1394B01221A80384B3E4A5A60FFF7E6FC0346FB7537E1344B01221A80314B1B79DBB21A46384B13442F4A5360FFF7D6FC6F
:401700000346FB7527E12B4B5B78DBB2013B0A2B00F21C8101A252F823F000BF291800004D190000B71800004D190000491700004D1900004D1900004D1900005D17000071
:401740004D190000E51700001A4B9B78DAB2234B1A70FFF7C7FD0346FB75FCE0154B9B787B717B79002B06D07B79013BDBB2184600F014FDB8607B79002B02D0BB68002BF5
:4017800003D17B79002B40F0E380124B1B78DBB27A799A4208D00F4A7B791370104B01221A70012000F0F2F9FFF79CFD0346FB75CEE000BF00600040B081FF1FC031000016
:4017C000683100004082FF1FCC81FF1F8081FF1FC981FF1FC781FF1F3882FF1FC681FF1FC481FF1F00F052FE0346002B00F0B2805B4B1B793B715A4B1B79DAB2594B1A70C9
:401800003B79594AD35CDAB23B795849CB5CDBB29A4204D0564B01221A7000F091FBFFF761FD0346FB7595E0FB7903F00303012B20D0012B0CD3022B00D03BE0484B9B783F
:40184000DBB2002B31D100F07DFD0346FB752CE0434B9B78DBB2012B29D1464B1B78DBB223F00203DAB2434B1A70FFF73BFD0346FB751CE03A4B1B79DBB2012B19D8384B95
:401880009B78DBB2DB43DBB2354A1279D2B211461046394A125CD2B21340DAB2364B5A54FFF720FD0346FB7503E000BF53E000BF51E000BF4FE0FB7903F00303012B20D017
:4018C000012B0CD3022B00D03BE0254B9B78DBB2002B31D100F0C2FC0346FB752CE0204B9B78DBB2012B29D1224B1B78DBB243F00203DAB21F4B1A70FFF7F4FC0346FB7500
:401900001CE0174B1B79DBB2012B19D8144B9B78DBB2DB43DBB2124A1279D2B211461046154A125CD2B21340DAB2134B5A54FFF7D9FC0346FB7503E000BF0CE000BF0AE052
:4019400000BF08E000BF06E000BF04E000BF02E000BF00E000BFFB7D18461837BD4680BD00600040BC81FF1FAC81FF1F3882FF1FC481FF1FC981FF1F3C82FF1FB0B58AB0B0
:4019800000AF7860324B07F114041D460FCD0FC42B682370002387F826307B68002B52D07B6822221A707B68013303221A7007F10C03184600F038FE022387F827303EE098
:4019C00097F827307A68134497F8262007F128010A4412F81C2C1209D2B207F128010A4412F8142C1A7097F8273001337A68134400221A7097F8273002337A68134497F86E
:401A0000262007F128010A4412F81C2C02F00F0207F128010A4412F8142C1A7097F8273003337A68134400221A7097F82630013387F8263097F82730043387F8273097F8E8
:401A40002730212BBCD900BF2837BD46B0BD00BF5431000090B482B000AF0123FB7180E0464AFB791B0113440C221A70FA79444913465B0013449B000B4405331B78DBB2CB
:401A8000002B1CD0FA793E4913465B0013449B000B4404331B78DBB25BB2002B07DA394AFB791B01134402330C221A700EE0354AFB791B011344023308221A7006E0314ABB
:401AC000FB791B011344023380221A702B48F979FA792B4C13465B0013449B00234406331B889BB2DAB20B01034406331A702348F979FA79224C13465B0013449B0023442C
:401B000006331B889BB21B0A9BB2DAB20B01034407331A701948F979FA79194C13465B0013449B00234406331B889BB2DAB20B01034404331A701148F979FA79104C1346F3
:401B40005B0013449B00234406331B889BB21B0A9BB2DAB20B01034405331A70FB790133FB71FB79082B7FF67BAF074BFF221A7000BF0837BD4690BC704700BF706000404B
:401B8000CC81FF1FFC5F00400A60004080B58AB000AF0346FB7100237B84002387F8273050E097F82720B34913465B0013449B000B4400221A7097F82720AE4913465B0063
:401BC00013449B000B44023300221A7097F82720A84913465B0013449B000B44033300221A7097F82720A34913465B0013449B000B44083300221A8097F827209D49134662
:401C00005B0013449B000B440A3300221A7097F82720984913465B0013449B000B44013300221A7097F82720924913465B0013449B000B44053300221A7097F827300133EF
:401C400087F8273097F82730082BAAD9FB79002B16D0002387F825300EE097F82530864A0021D15497F82530844A0021D15497F82530013387F8253097F82530012BECD9D5
:401C80007F4B1B78DBB2002B00F051810023FB767B4B1B78DBB2013BDBB2184600F07EFA78617B695B683B613B6907331B7803F04003002B08D0734B1B78DBB243F0010369
:401CC000DAB2704B1A7007E06E4B1B78DBB223F00103DAB26B4B1A707B6908337B617B691B7887F82730012387F82530B6E07B695B68FB61002387F82630A3E097F8252048
:401D0000FB699B7803F07F039A4240F0938097F82520584913465B0013449B000B4408331B889AB2FB699B889A420CD297F82520FB6998884F4913465B0013449B000B44DE
:401D4000083302461A80FB691B781A464A4B9B5CDAB2FB695B789A426CD197F82520FB699878444913465B0013449B000B44043302461A7097F82520FB69D8783D4913464D
:401D80005B0013449B000B4402461A70FB69DB7803F00303FB73FB699B785BB2002B1CDA97F82520FB7B012B01D1072000E00D20304913465B0013449B000B440533024688
:401DC0001A7097F825202B4913465B0013449B000B44013301221A701BE097F82520FB7B012B01D1052000E00920224913465B0013449B000B44053302461A7097F825208C
:401E00001C4913465B0013449B000B44013300221A70FB699B790A2B03D0FB699B79022B08D1FA7E97F825301946F869FEF77CFF0346FB76FB690833FB6197F82630013310
:401E400087F8263097F8262097F827309A42FFF455AF97F82530013387F8253097F82530082B7FF644AF7B695B68FB61002387F8253020E0CC81FF1F3882FF1FAC81FF1F0C
:401E8000C781FF1FC981FF1FFB699B7803F07F02FB691878284913465B0013449B000B440A3302461A70FB690833FB6197F82530013387F8253097F8252097F827309A4283
:401EC000E2D300F0A5F902461C4B1A6000237B84012387F8273024E097F82720164913465B0013449B000B4406337A8C1A8097F82720114913465B0013449B000B440833F3
:401F00001B889AB27B8C13447B847B8C03F001039AB27B8C13447B8497F82730013387F8273097F82730082BD6D9FFF793FD00BF2837BD4680BD00BFCC81FF1FC081FF1F89
:401F400090B585B000AF8F4B1B78DBB2002B00F015818C4B1B78DBB2013BDBB2184600F01DF978607B6808337B607B681B78FB707B685B68BB60844B1B78BB700023FB73D8
:401F8000F7E0BB681B78BA789A4240F0EC80BB787E4AD35CDAB2BB685B789A4240F0E380BB689B7803F07F037B70BB68DB7803F003033B707A78764913465B0013449B00C8
:401FC0000B44033300221A707A78BB689878704913465B0013449B000B44043302461A707A78BB68D8786A4913465B0013449B000B4402461A707A78BB68988864491346BA
:402000005B0013449B000B44083302461A80BB689B785BB2002B1ADA7A783B78012B01D1072000E00D205A4913465B0013449B000B44053302461A707A78554913465B00C8
:4020400013449B000B44013301221A7019E07A783B78012B01D1052000E009204C4913465B0013449B000B44053302461A707A78474913465B0013449B000B440133002213
:402080001A70444A7B781B011344023301221A70404879787A783E4C13465B0013449B00234408331B889BB21B0A9BB2DAB20B0103441A70374879787A78354C13465B0021
:4020C00013449B00234408331B889BB2DAB20B01034401331A70304879787A782C4C13465B0013449B00234406331B889BB2DAB20B01034406331A70274879787A78244C52
:4021000013465B0013449B00234406331B889BB21B0A9BB2DAB20B01034407331A701E4879787A781A4C13465B0013449B00234406331B889BB2DAB20B01034404331A70CF
:40214000154879787A78124C13465B0013449B00234406331B889BB21B0A9BB2DAB20B01034405331A70BB680833BB60FB7B0133FB73FA7BFB789A42FFF403AF00BF143774
:40218000BD4690BDC781FF1FBC81FF1F3882FF1FCC81FF1FFC5F00407060004080B485B000AF0346FB710F4B1B78DBB20E4ADB0013445B68FB60FB681033FB60FB681B783A
:4021C000FA799A4202D30023FB6005E0FB79DB00FA6813445B68FB60FB6818461437BD4680BC7047A581FF1FC032000080B400AF054B1B78DBB2054ADB0013445B68184605
:40220000BD4680BC704700BFA581FF1FC032000080B584B000AF104B1B78DBB2013BDBB21846FFF7BBFFB860BB68002B0DD0BB685B681B79FB71FB790233DB00BA68134423
:40224000BB60BB685B68FB6001E00023FB60FB6818461037BD4680BDC781FF1F80B582B000AF0023FB71344B1B79DBB203F07F03BB71BB79002B5AD0BB79082B57D8BA79BD
:40228000B9792E480B465B000B449B00034402331B78DBB243F00103D8B2284913465B0013449B000B44023302461A70BA79234913465B0013449B000B44033300221A70A0
:4022C000BA79B9791D480B465B000B449B00034401331B78DBB243F00203D8B2174913465B0013449B000B44013302461A70BA79124913465B0013449B000B4404331B7879
:40230000DBB25BB2002B07DA0D4ABB791B01134402338D221A7006E0094ABB791B011344023389221A70FEF7DDFF0346FB71FB7918460837BD4680BD00600040CC81FF1F5F
:40234000FC5F004080B582B000AF0023FB714C4B1B79DBB203F07F03BB71BB79002B00F08A80BB79082B00F28680BA79B97945480B465B000B449B00034402331B78DBB2E8
:4023800023F00103D8B23F4913465B0013449B000B44023302461A70BA793A4913465B0013449B000B44033300221A70364ABB791B0113447F221A70BA79B97931480B46EA
:4023C0005B000B449B00034401331B78DBB223F00203D8B22B4913465B0013449B000B44013302461A70BA79264913465B0013449B000B4404331B78DBB25BB2002B1BDAD1
:40240000BA79204913465B0013449B000B4401331B78DBB2012B07D11B4ABB791B01134402330C221A7022E0174ABB791B01134402330D221A701AE0BA79124913465B0086
:4024400013449B000B4401331B78DBB2012B07D10D4ABB791B011344023308221A7006E0094ABB791B011344023309221A70FEF739FF0346FB71FB7918460837BD4680BDDF
:4024800000600040CC81FF1FFC5F004080B584B000AF0023FB73154B1B79BB73144B1B78DBB2013BDBB21846FFF778FEB860BB685B681B79FB71BA7BFB799A4202D9BB7B05
:4024C000022B0ED8BB7BBA7B0A498A5CD1B20A4AD154BB7B054A9278D1B2064AD1540123FB73FB7B18461037BD4680BD00600040C781FF1F3882FF1FAC81FF1F80B483B025
:4025000000AF0023FB71094B1B78DBB25BB2002B06DA064B5B78DBB2012B00D000E000BFFB7918460C37BD4680BC70470060004080B400AF054B1B78DBB203F040039B09AD
:40254000DBB21846BD4680BC704700BF8F45004080B483B000AF0346FB7101BE00BF0C37BD4680BC704700BF80B582B000AF0346FB80FB88054A127802FB03F3184600F0EF
:40258000B7F800BF0837BD4680BD00BFF480FF1F80B584B000AF03463960FB710F4B1B68FB60FB791F2B02D90020FFF7D1FFFB7903F01F0310339B00FA6813441B68BB6002
:4025C000FB7903F01F0310339B00FA6813443A681A60BB6818461037BD4680BD08ED00E080B582B000AF03460A46FB711346BB71BB79072B02D90020FFF7AAFFFB791F2B64
:4026000002D90020FFF7A4FFFB7903F01F0303F1604303F56443BA795201D2B21A7000BF0837BD4680BD00BF80B483B000AF7860264B1B78DBB21A467B681A60244B1B7878
:40264000DBB21B027A6812681A437B681A60214B1B78DBB21B047A6812681A437B681A601D4B1B78DBB21B067A6812681A437B681A607B680433194A1278D2B21A60184BB2
:402680001B78DBB21A027B6804337968043109680A431A60134B1B78DBB21A047B6804337968043109680A431A600F4B1B78DBB21A067B6804337968043109680A431A6070
:4026C00000BF0C37BD4680BC704700BF0301004904010049EC460040020100490101004900010049050100490601004900000000142816D902B4012114381049097811F06C
:40270000C001890904B40E4A515C04BC00BF00BF00BF8841FDD500BF00BF02BC704700BF00BF70F10400FCD570470B050709EFF3108072B6704780F31088704700480040D8
:402740002A27000080B582B000AF1A4B1B78DBB203F00303012B02D0022B04D012E0154B1B79BB7111E0134B1B79DBB203F07F02114913465B0013449B000B440A331B7860
:40278000BB7102E00023BB7100BF0C4B1A68BB7913441B78022B04D1FEF74CF90346FB7102E00023FB7100BFFB7918460837BD4680BD00BF00600040CC81FF1FC081FF1F6B
:4027C000014B1868704700BF5C81FF1F0E4B70B51E460E4C0025E41AA410A54204D056F8253098470135F8E700F08AFD084B094C1E46E41AA4100025A54204D056F825307F
:4028000098470135F8E770BD0C3300000C3300000C3300001433000010B5431E0A44914204D011F8014B03F8014FF8E710BD03460244934202D003F8011BFAE77047000027
:402840000EB400B54FF402719CB0ADF814106FF00041049107914FF6FF711DAB02900690084853F8042BADF81610006802A9019300F064F8029B00221A701CB05DF804EBC3
:4028800003B070475C81FF1F2DE9F0478E6882469E420C46914698463ED88A8912F4906F3AD02568096902236F1A656905EB450595FBF3F57B1C43449D4238BF1D465305AD
:4028C0000FD5294600F040FB064698B13A462169FFF7A2FFA38923F4906343F08003A38113E02A4600F08EFB064670B92169504600F0DEFA0C23CAF80030A3894FF0FF3020
:4029000043F04003A381BDE8F08726613E44266046466561ED1BA560464528BF464649463246206800F0A8FAA36800209B1BA36023681E442660BDE8F08700002DE9F04F0C
:402940009DB003938B8980461C060D4616460DD50B695BB9402100F0F7FA2860286118B90C23C8F80030CDE040236B610023099320238DF82930DFF89CB130238DF82A300A
:4029800037463C4614F8013B1BB9B7EB060910D003E0252BF9D02746F3E74B46324629464046FFF771FF013000F0A780099B4B4409933B78002B00F0A08000234FF0FF322C
:4029C00004930793059206938DF853301A930126052221784E4800F041FA671C049B38B14B4A3C46801A06FA00F018430490EFE7D90644BF20228DF853201A0744BF2B221B
:402A00008DF8532022782A2A03D0079A00210A200BE0039A111D12680391002A10DA524243F00200079204900BE027463B780134303B092B03D800FB02320121F5E701B18A
:402A400007923B782E2B1ED17B782A2B0AD1039B02371A1D1B680392002BB8BF4FF0FF33059310E0002319460593781C0A2407463A780130303A092A03D804FB0121012315
:402A8000F5E703B1059103223978224800F0E6F940B14023CBEB000003FA00F0049B013718430490397806221B487E1C8DF8281000F0D4F988B1194B33B9039B073323F060
:402AC00007030833039314E003AB00932A46144B04A94046AFF3008007E003AB00932A460F4B04A9404600F093F8B0F1FF3F824603D0099B5344099342E7AB895B0601D41E
:402B0000099801E04FF0FF301DB0BDE8F08F00BFCA320000D0320000D432000000000000892800002DE9F04791461F460A698B6806469342B8BF1346C9F8003091F8432083
:402B40000C46DDF8208012B10133C9F800302368990642BFD9F800300233C9F80030256815F0060510D104F1190A07E00123524639463046C04701301AD00135E368D9F8B2
:402B800000209B1A9D42F1DB94F843302268003318BF012392060FD5E118302081F843005A1C94F845102244023382F8431003E04FF0FF30BDE8F08704F143023946304602
:402BC000C0470130F4D02268D9F80050E36802F00602042A08BF5D1B2269A3680CBF25EAE57500259342C4BF9B1AED184FF000091A344D4509D00123224639463046C047F2
:402C00000130D5D009F10109F3E70020BDE8F0872DE9F04317460A7E85B06E2A984606460C460C9B01F1430E00F0AE8011D8632A22D009D8002A00F0BB80582A40F0CA808B
:402C400081F84520834955E0642A1ED0692A1CD0C0E0732A00F0B08009D86F2A2ED0702A40F0B8800A6842F020020A603EE0752A24D0782A3AD0ADE01A6801F14205111DA0
:402C80001960136884F84230A8E021681A6811F0800F02D0111D196008E011F0400F02F10401196002D0B2F9003000E01368002B3CDA2D225B4284F8432037E021681A68B7
:402CC00011F0800F02D0111D196007E011F0400F02F10401196001D0138800E01368227E5C496F2A14BF0A2208221BE078225A4984F845202268186812F0800F00F10405A7
:402D00001D6003D1550601D5038800E00368D00744BF42F0200222601BB9226822F0200222601022002084F8430001E049490A226568002DA56008DB206820F004002060C9
:402D40002BB9002D7DD175460CE0002B79D07546B3FBF2F002FB1033CB5C05F8013D03460028F5D1082A0BD12368DA0708D5236962689A42DEBF302305F8013C05F1FF35D8
:402D8000C5EB0E0323612EE008681A6810F0800F496903D0101D1860136808E010F0400F02F104001860136801D0198000E0196000232361754616E01A68111D19601568B8
:402DC00000216268284600F049F808B1401B6060636804E004F1420584F8422001232361002384F84330CDF800803B4603AA21463046FFF797FE013002D14FF0FF3026E09F
:402E000023692A4639463046C0470130F5D023689B0710D5002504F1190907E001234A4639463046C0470130E7D00135E368039A9B1A9D42F2DBE068039B9842B8BF1846C3
:402E400005E00B7804F1420584F842308AE705B0BDE8F083DB320000EC32000010B5C9B202449042034605D01C7801308C42F8D1184610BD002010BD884210B501EB0203ED
:402E800001D8421E0BE09842FBD28118D21AD34204D013F8014D01F8014DF8E710BD994204D011F8014B02F8014FF8E710BD000038B50546002944D051F8043C0C1F002B3F
:402EC000B8BFE41800F0D4F81E4A1368114613B96360146030E0A3420DD92268A018834201BF18685B681218226063600C6023E0A24203D813465A68002AF9D11868191824
:402F0000A1420BD12168014458188242196013D110685268014419605A600DE002D90C232B6009E021686018824201BF106852680918216062605C602846BDE8384000F00C
:402F400098B838BD8881FF1F70B5CD1C25F0030508350C2D38BF0C25002D064601DBA94202D90C23336046E000F082F8234B1C681A462146A1B10B685B1B0ED40B2B03D9C7
:402F80000B60CC18CD501EE08C420BBF63684B681360636018BF0C4615E00C464968E9E7174C23681BB9304600F052F820602946304600F04DF8431C18D0C41C24F003041C
:402FC000A0420DD12560304600F053F804F10B00231D20F00700C31A0ED05A42E25070BD211A304600F034F80130EBD10C233360304600F03EF8002070BD00BF8881FF1F83
:403000008481FF1FF8B5074615460E4621B91146BDE8F840FFF798BF1AB9FFF749FF2846F8BD00F027F885420ED929463846FFF78BFF044650B131462A46FFF7EDFB314684
:403040003846FFF735FF01E03046F8BD2046F8BD38B5064C0023054608462360FDF7CCF9431C02D1236803B12B6038BD6482FF1F7047704751F8040C0028BEBF091851F87F
:40308000043CC0180438704700000000526573756C74203D2025640A000000000500140100510040100020510040500000000140001000140140000800400140000A004C35
:4030C00001400002005001402000000001450040015200400217014002190140034001400341014003420140034301400447014004480140024C0140015101407E027C4080
:40310000EA02EE0AEA02EE0A33813640CC709F01A640A7809F01A640A7809F01A640A78008080B040F40C20EAE40AF81EA40EE50AC08AF44002A00000001010000000000C3
:403140004000000000000000C0000000000F0B000000000030313233343536373839414243444546000000001201000202000008B40432F2010001018001000009024300C6
:403180000201018032090400000102020103052400100104240202052406000105240100010705810308000A09040100020A000004070582024000000705030240000000A1
:4031C000040309042C0343007900700072006500730073002000530065006D00690063006F006E0064007500630074006F00720010035500530042005500410052005400EB
:403200003803430044004300200043006F006D006D0075006E00690063006100740069006F006E00200049006E00740065007200660061006300650026034300440043006F
:4032400020004400610074006100200049006E00740065007200660061006300650000000203000000008103080002000100820240000A000100030240000A00020A000045
:40328000010000007C310000030000006432000000000000000000000000000000000000000000007C320000010000006831000000000000000000000100000080320000CC
:4032C00001000000A83200004300232D302B2000686C4C006566674546470030313233343536373839414243444546003031323334353637383961626364656600000000BD
:40330000F8B500BFF8BC08BC9E4670474D000000E1040000F8B500BFF8BC08BC9E4670472900000038330000C880FF1F980000000801000000000000000000006882FF1FBA
:4033400000C2010000000800C201000000080000A120000000000200000000000090D00300FA0000400000000000007D0000000000000000000000000000000000000000DA
:40338000000000000000000000000000C832000000000000000000000000000000000000000000000000000000000000000000000000000000000000000000000000000013
:4033C000000000000000000000000000FC80FF1F00000000000000000000000000000000000000000000000000000000000000000000000000000000000000000000000033
:40340000000000000000000000000000000000000000000000000000000000000000000000000000000000000000000000000000000000000000000000000000000000008C
:40344000000000000000000000000000000000000000000000000000000000000000000000000000000000000000000000000000000000000000000000000000000000004C
:40348000000000000000000000000000000000000000000000000000000000000000000000000000000000000000000000000000000000000000000000000000000000000C
:4034C00000000000000000000000000000000000000000000000000000000000000000000000000000000000000000000000000000000000000000000000000000000000CC
:0200000480007A
:0200000490006A
:040000000800C0052F
:0200000490105A
:04000000BC90ACAF55
:0200000490303A
:02000000D472B8
:0200000490402A
:4000000000000000000000000000000000000000000000000000000000000000000000000000000000000000000000000000000000000000000000000000000000000000C0
:400040000000000000000000000000000000000000000000000000000000000000000000000000000000000000000000000000000000000000000000000000000000000080
:400080000000000000000000000000000000000000000000000000000000000000000000000000000000000000000000000000000000000000000000000000000000000040
:4000C0000000000000000000000000000000000000000000000000000000000000000000000000000000000000000000000000000000000000000000000000000000000000
:0200000490501A
:0C00000000012E17806900012E2A54DB3D
:00000001FF